:100000000C9485020C942B1B0C94001B0C94D51A99
:100010000C94AF020C9423030C94AF020C94AF0227
:100020000C94561B0C94AF020C94AF020C94AF02CC
:100030000C94AF020C94AF020C94AF020C94AF027C
:100040000C94AF020C94AF020C948B1A0C94AF0278
:100050000C9443200C9419200C94AF020C94AF0222
:100060000C94AF020C94AF020C94B41B0C94AF022E
:100070000C94E31F0C94B91F0C94AF020C94AF02C4
:100080000C94AF020C94AF020C94AF02D60205039D
:10009000DA02DE0205030503050305030503050374
:1000A0000503E402050305030503E8020503050350
:1000B000EC020503F0020503F402F8020503FD0259
:1000C0009F05BC05BC05BA05BC058D05BC05BC0576
:1000D000BC059005BC05BC05A805B705B405BC0565
:1000E000BC05BC05B105A819AB199E19A219C21906
:1000F000C219AF19B319B919BD199322F222F62208
:10010000F622F622A2229A22F622F6220800000007
:10011000BE922449123EABAAAA2ABECDCCCC4C3EFC
:1001200000000080BEABAAAAAA3E00000000BF00EB
:100130000000803F0000000000084178D3BB4387E7
:10014000D1133D190E3CC3BD4282AD2B3E68EC82FB
:1001500076BED98FE1A93E4C80EFFFBE01C4FF7F80
:100160003F000000000031353A33353A3130004A63
:10017000616E2033312032303139000000200023FD
:1001800000260029001F1C1F1E1F1E1F1F1E1F1ED2
:100190001F000000000000000000005F00000000E1
:1001A00000000007000700000000147F147F140007
:1001B0000000242A7F2A1200000023130864620032
:1001C00000003649552250000000000503000000E1
:1001D00000001C2241000000000041221C00000021
:1001E0000000082A1C2A0800000008083E08080031
:1001F0000000A060000000000000080808080800D7
:1002000000006060000000000000201008040200F0
:1002100000003E5149453E00000000427F40000082
:100220000000625149494600000022414949360018
:1002300000001814127F10000000274545453900C2
:1002400000003C4A494930000000017109050300E3
:1002500000003649494936000000064949291E0078
:100260000000003636000000000000AC6C0000000A
:10027000000008142241000000001414141414009B
:10028000000041221408000000000201510906008C
:100290000000324979413E0000007E0909097E00D4
:1002A00000007F494949360000003E41414122009B
:1002B00000007F4141221C0000007F494949410064
:1002C00000007F090909010000003E414151720010
:1002D00000007F0808087F000000417F4100000007
:1002E00000002040413F010000007F08142241002F
:1002F00000007F404040400000007F020C027F0071
:1003000000007F0408107F0000003E4141413E0094
:1003100000007F090909060000003E4151215E00EE
:1003200000007F091929460000002649494932008A
:10033000000001017F01010000003F4040403F00FC
:1003400000001F2040201F0000003F4038403F00B9
:100350000000631408146300000003047804030021
:10036000000061514945430000007F414100000009
:100370000000020408102000000041417F0000003E
:1003800000000402010204000000808080808000E0
:1003900000000102040000000000205454547800C2
:1003A00000007F48444438000000384444280000DE
:1003B0000000384444487F0000003854545418006A
:1003C0000000087E09020000000018A4A4A47C001C
:1003D00000007F08040478000000007D0000000099
:1003E000000080847D00000000007F102844000091
:1003F0000000417F4000000000007C0418047800E9
:1004000000007C08047C00000000384444380000F0
:100410000000FC24241800000000182424FC000024
:100420000000007C08040000000048545424000030
:100430000000047F4400000000003C40407C0000BD
:1004400000001C2040201C0000003C4030403C00CC
:10045000000044281028440000001CA0A07C0000DC
:1004600000004464544C4400000008364100000081
:100470000000007F0000000000004136080000007E
:100480000000020101020100000002050502000057
:100490000000002100240027002A0000002200257F
:1004A0000028002B000404040404040404020202D3
:1004B000020202010101010303030303030101011D
:1004C000010303020201020408102040800102100F
:1004D0002040801020408010082004408001020449
:1004E00008010204080000000004030807000002DD
:1004F00000090A00000000000000000000000000E9
:100500000000000001008120792011241FBECFEFE0
:10051000D0E4DEBFCDBF14E0A0E0B1E0EEE5FBE546
:1005200000E00BBF02C007900D92AE34B107D9F7BF
:1005300029E0AEE4B4E001C01D92A236B207E1F7B3
:1005400012E0C4E8D2E004C02197FE010E94EB272C
:10055000C338D107C9F70E9409210C94A22D0C942D
:10056000000081E090E0909356098093550908952A
:100570008091530990915409019690935409809366
:100580005309089508950F931F93CF93DF93EC01C0
:100590008B01CB010E94502A815691098A31910525
:1005A000A0F58A5B9F4FFC010C94EB27CE010E94C3
:1005B000272A21C0CE010E943B2A1DC0E09791E06E
:1005C00080E02A97F8F01DC0CE010E94282A13C0AF
:1005D000CE010E94432A0FC0CE010E9470240BC09E
:1005E000CE010E94242A07C0CE010E941A2A03C00D
:1005F000CE010E942F2AEC010EC091E080E0CD2BAD
:1006000009F090E0C92FD82F06C081E090E00C17C8
:100610001D0751F40CC0C8010E94282A892B31F40F
:1006200081E090E0CD2B19F080E001C0CE01DF9198
:10063000CF911F910F910895682F880F770B87E74F
:1006400096E00E944F241F920F920FB60F92112432
:100650000BB60F922F933F934F935F936F937F93BC
:100660008F939F93AF93BF93CF93DF93EF93FF93BA
:10067000E4E0F5E08491E4EEF4E0D491E4ECF4E01D
:10068000C491CC2371F081110E949419EC2FF0E0F9
:10069000EE0FFF1FE558FE4FA591B491EC91ED23AD
:1006A00039F4E0914E04F0914F04309709F0099528
:1006B000FF91EF91DF91CF91BF91AF919F918F917A
:1006C0007F916F915F914F913F912F910F900BBE52
:1006D0000F900FBE0F901F901895CF93DF93EC01F2
:1006E000488150E04053584F052E000C660B770BA5
:1006F0002AE086E797E00E94E8108FE20E946515E5
:10070000698186E797E00E945E158FE20E94651579
:100710006A8186E797E00E945E1580E20E94651577
:100720006B8186E797E00E945E158AE30E9465155B
:100730006C8186E797E00E945E158AE30E9465154A
:100740006D8186E797E00E945E156FEA71E086E7AB
:1007500097E0DF91CF910C94A41FCF92DF92EF929C
:10076000FF920F931F93CF93DF93CDB7DEB7C65899
:10077000D1090FB6F894DEBF0FBECDBF6C0140E0CB
:1007800050E061EB71E08AEF98E00E94CD0E89EDB8
:1007900096E00E94151F18161906F4F489ED96E0EC
:1007A0000E94151F1816190684F489ED96E00E9420
:1007B000F31E89831A8241E050E0BE016F5F7F4FD4
:1007C0008AEF98E00E94740EE9CF6AE070E080E062
:1007D00090E00E94451ADBCF4091FE085091FF083F
:1007E0008E010F5F1F4F4115510529F0B8018AEFA7
:1007F00098E00E940917F80101900020E9F731976D
:10080000E01BF10B10936F0800936E08F0937108D2
:10081000E093700810926D0881E391E00E946216E7
:10082000813009F051C080916D08813071F4809160
:10083000780890917908181619063CF4E0907C0825
:10084000F0907D081E141F041CF0109250040DC07F
:1008500060917A0870917B08A70180E594E00E947E
:10086000652AF701E05BFB4F108260E574E0CE0182
:100870008F579F4F0E94130FBE016F577F4FC601C6
:100880000E94D016CE018F579F4F0E94050FF60190
:10089000448155814115510521F0B801C6010E94DE
:1008A0000917B801CE018F579F4F0E94130FBE0149
:1008B0006F577F4FC6010E94D016CE018F579F4FB2
:1008C0000E94050F80E029C08AE391E00E94621631
:1008D0008130D1F08AE491E00E9462168130B1F05B
:1008E0008FE591E00E946216813091F083E791E0FC
:1008F0000E946216813071F08EE891E00E946216CB
:10090000813051F083E609C08EE107C088E205C05E
:1009100082E303C08CE301C086E4CA57DF4F0FB601
:10092000F894DEBF0FBECDBFDF91CF911F910F9125
:10093000FF90EF90DF90CF9008954F925F926F926B
:100940007F928F929F92AF92BF92CF92DF92EF925F
:10095000FF920F931F93CF93DF93CDB7DEB7CE599E
:10096000D1090FB6F894DEBF0FBECDBF1092570865
:10097000109258081092590810925A0810921508AF
:100980001092160810921708109218080E947F1AE9
:100990004B015C012B013C0188EB480E8BE0581E9B
:1009A000611C711C0E947F1A681579058A059B05D8
:1009B00028F04616570668067906A0F786E797E0FE
:1009C000909356088093550840E855E260E070E047
:1009D0000E94FB140E947F1A6093150870931608FA
:1009E000809317089093180860EA71E08091550889
:1009F000909156080E9483120E947F1A4B015C015D
:100A00002B013C018AE0480E511C611C711C0E94A4
:100A10007F1A681579058A059B0528F04616570642
:100A200068067906A0F781E08093290840E052EC3F
:100A300061E070E086E797E00E94FB1461E083E0EC
:100A40000E94F21960E083E00E94C31910925409D9
:100A50001092530960E082E00E94F21988EB92E064
:100A600090930101809300018091690083608093DD
:100A70006900E89A0E94C10D88E60E94CB1588E0C3
:100A800090E00E94C6150E946A150E94350E8BE503
:100A900098E00E94F5188C0187FF0DC088E60E943F
:100AA000CB1588E090E00E94C615C80180680E94BE
:100AB000C6150E946A150E94600E60E08EE10E94D9
:100AC000F21981EB92E090930501809304018091EB
:100AD00069008F7C806280936900EA9A4BE050E065
:100AE0006FE671E08E010F5F1F4FC8010E947924ED
:100AF000CE010A960E94C01DE82EE9814E2FEE0F0E
:100B0000550B660B770BFA01E154F109E331F1055E
:100B100098F5E05AFF4F0C94EB2722E0F22E2CC000
:100B20008A81813649F08B818E3619F097E0F92E53
:100B300023C086E0F82E20C0FF24F3941DC08B81D3
:100B4000823719F0B8E0FB2E17C0A4E0FA2E14C0CB
:100B50008B81823719F0F5E0FF2E0EC0E3E0FE2E08
:100B60000BC079E0F72E08C06AE0F62E05C05BE006
:100B7000F52E02C04CE0F42ECE0105960E94C01D59
:100B8000C82E48E050E066E671E0C8010E94792472
:100B9000C8010E94C01D982ECE0104960E94C01D5F
:100BA000882ECE0107960E94C01D782E88E60E94EE
:100BB000CB1584E090E00E94C6150E946A150E9441
:100BC000350E8BE598E00E94F5185C0188E60E94DE
:100BD000CB1581E090E00E94C6153AE0D32E872D18
:100BE0006D2D0E94CB27682F660F860F880F682F08
:100BF000670D8BE598E00E943E19882D6D2D0E94AF
:100C0000CB27682F660F860F880F682F680D8BE53E
:100C100098E00E943E19892D6D2D0E94CB27682FE8
:100C2000660F860F880F682F690D8BE598E00E948C
:100C30003E19C5010E94C6158C2D6D2D0E94CB2733
:100C4000682F660F860F880F682F6C0D8BE598E074
:100C50000E943E198F2D6D2D0E94CB27682F660FA5
:100C6000680F660F6F0D8BE598E00E943E198E2D80
:100C70006D2D0E94CB27682F660F680F660F6E0DD3
:100C80008BE598E00E943E190E946A1585E090E08D
:100C9000A0E0B0E025968CAF9DAFAEAFBFAF25977B
:100CA000C8010E94461DAE014F5B5F4FB801CE01E7
:100CB000895A9F4F0E94851262EB71E086E797E0A8
:100CC0000E948312C8010E94461DC8010E946D0344
:100CD000CE01895A9F4F0E94E61C6DED73E086E7B6
:100CE00097E00E94831268968FAD68978983699612
:100CF0008FAD69978A836A968FAD6A978B836B965F
:100D00008FAD6B978C836C968FAD6C978D836D9642
:100D10008FAD6D978E83C8010E946D0368EC70E003
:100D200080E090E00E94451A0E943F0E6CEB71E05B
:100D300086E797E00E946F1261EB71E0CE01835A63
:100D40009F4F0E94130F61EB71E0CE018D599F4FB1
:100D50000E94130F61EB71E0CE0187599F4F0E94F3
:100D6000130F61EB71E0CE0181599F4F0E94130F69
:100D700061EB71E0CE018B589F4F0E94130F61EB26
:100D800071E0CE0185589F4F0E94130F61EB71E017
:100D9000CE018F579F4F0E94130F61EB71E0CE0180
:100DA00089579F4F0E94130F61EB71E0CE0183576B
:100DB0009F4F0E94130F61EB71E0CE018D569F4F44
:100DC0000E94130F61EB71E0CE0187569F4F0E9486
:100DD000130F0E94C10D40E855E260E070E086E725
:100DE00097E00E94FB1460ED71E086E797E00E94B7
:100DF0006F128EEA0E94E61565E070E080E090E0F8
:100E00000E94451A8FEA0E94E61565E070E080E0D6
:100E100090E00E94451A86EA0E94E6150E9400169C
:100E200086EA0E94E61582E080938E0680E20E94A8
:100E3000E61580E00E94E61561EB71E0CE018F5B64
:100E40009F4F0E94130F69ED71E0C8010E94130FBC
:100E5000C8010E94050F61E082E10E94F21960E082
:100E600082E10E94C31961E083E10E94F21960E00F
:100E700083E10E94C31961E085E10E94F21961E0FB
:100E800085E10E94C31964E670E080E090E00E9472
:100E9000451A60E085E10E94C31964E670E080E0D5
:100EA00090E00E94451A61E085E10E94C31940E884
:100EB00055E260E070E089ED96E00E94FB1464EE7C
:100EC00071E0C8010E94130FC8010E94050F8091B4
:100ED000680082608093680080916C0088608093D5
:100EE0006C0082EC92E090934F0480934E0460ED8E
:100EF00077E080E090E00E94451A6BEF71E0C80156
:100F00000E94130FC8010E948E17C8010E94050F8E
:100F1000CE018F5B9F4F0E94AD03CE018F5B9F4F31
:100F20000E94050F41E050E06FEF71E0CE0189575C
:100F30009F4F0E94CD0ECE0187599F4F0E942818C7
:100F4000E5968EAD9FADE597892B09F442C0CE01A1
:100F500087599F4F0E94610D61E072E086E797E03C
:100F60000E946F12BE0161597F4FCE0187599F4F7A
:100F70000E942F0D81111DC06BE172E0C8010E941B
:100F8000130FBE0161597F4FC8010E942B170E94A9
:100F90003E17C8010E94050FBE0161597F4FC8016D
:100FA0000E940A0FC8010E94AC10C8010E94050FE0
:100FB00010C06BE272E0C8010E94130FBE016759B6
:100FC0007F4FC8010E942B170E943E17C8010E9444
:100FD000050FCE018B589F4F0E940218C158DF4F5A
:100FE00088819981CF57D040892B09F442C0CE0126
:100FF0008B589F4F0E94610D6EE372E086E797E089
:101000000E946F12BE0165587F4FCE018B589F4FD3
:101010000E942F0D81111DC068E572E0C8010E9479
:10102000130FBE0165587F4FC8010E942B170E9405
:101030003E17C8010E94050FBE0165587F4FC801C9
:101040000E940A0FC8010E947010C8010E94050F7B
:1010500010C068E672E0C8010E94130FBE016B5811
:101060007F4FC8010E942B170E943E17C8010E94A3
:10107000050F6BE772E0C8010E94130FC8010E94C0
:101080003410C8010E94050FBE0169577F4FC80187
:101090000E940A0FC8010E94F80FC8010E94050FA4
:1010A0000E94001680E00E94F7158DE792E00E94F2
:1010B0002E1682E00E94F7156CE872E0C8010E94CB
:1010C000892A61EB71E0CE018F5A9F4F0E94130F66
:1010D000F80101900020E9F731976F01C01AD10A99
:1010E000B80186E797E00E946F12C6010E94311195
:1010F00080E1C816D10444F480E190E07C01EC1852
:10110000FD08F594E79402C0E12CF12CC7010E9480
:101110003111C12CD12CBE016F5A7F4FCE018F5B94
:101120009F4FCE14DF04C4F40E940A0F6AEE73E0EE
:10113000CE018F5B9F4F0E94B40EBC01CE018F5A2F
:101140009F4F0E94EE0ECE018F5B9F4F0E94050FB6
:101150008FEFC81AD80ADFCF0E940A0FB801CE015C
:101160008F5B9F4F0E94B40EBC01CE018F5A9F4FE0
:101170000E94EE0ECE018F5B9F4F0E94050F40E153
:1011800050E0B801CE018F5A9F4F0E940917CE013F
:101190008F5A9F4F0E94050FC8010E942E1660EDC6
:1011A00077E080E090E00E94451ACE01835A9F4F7D
:1011B0000E944E18CE018B589F4F0E940218CE01FC
:1011C00087599F4F0E942818BE016B587F4FCE0150
:1011D0008F5A9F4F0E940A0FBE0167597F4FCE0161
:1011E0008F5B9F4F0E940A0FBE01635A7F4FC80159
:1011F0000E940A0FAE014F5A5F4FBE016F5B7F4FD7
:10120000C8010E94280FC8010E94050FCE018F5B04
:101210009F4F0E94050FCE018F5A9F4F0E94050FCE
:1012200060ED77E080E090E00E94451A0E94001691
:1012300080E00E94F71585E992E00E942E1665E98C
:1012400072E086E797E00E946F12E12CF12C86E1B4
:10125000C82E83E0D82E94E6A92EB12C60EA72E065
:10126000CE018F5B9F4F0E94130FCE018F5B9F4F6C
:101270000E948E17CE018F5B9F4F0E94050F87E65D
:1012800098E00E94AD03811114C040916B08509109
:101290006C084115510539F0BE016F5B7F4F87E641
:1012A00098E00E94091722968FAD2297813321F48E
:1012B000DFC1813009F4DCC1E114F10409F070C12F
:1012C0006AEA72E086E797E00E946F12CE01835AC5
:1012D0009F4F0E944E186AEB72E0CE018F5B9F4FCA
:1012E0000E94130FBE01635A7F4FCE018F5B9F4F49
:1012F0000E942B170E943E17CE018F5B9F4F0E94CA
:10130000050FCE0187599F4F0E94281863E272E0B3
:10131000CE018F5B9F4F0E94130FBE0167597F4F15
:10132000CE018F5B9F4F0E942B170E943E17CE016C
:101330008F5B9F4F0E94050FCE018B589F4F0E94DD
:10134000021860E672E0CE018F5B9F4F0E94130F80
:10135000BE016B587F4FCE018F5B9F4F0E942B17B2
:101360000E943E17CE018F5B9F4F0E94050F62ECDB
:1013700072E0CE018F5B9F4F0E94130FCE018F5BF7
:101380009F4F0E948E17CE018F5B9F4F0E94050FCB
:10139000CE018F579F4F0E94AD036EEC72E0CE01DD
:1013A0008F5B9F4F0E94130FBE016F577F4FCE017F
:1013B0008F5B9F4F0E942B170E943E17CE018F5BC1
:1013C0009F4F0E94050F65ED72E0CE018F5B9F4F2E
:1013D0000E94130FCE018F5B9F4F0E948E17CE018C
:1013E0008F5B9F4F0E94050F87E698E00E94AD0338
:1013F000811116C040916B0850916C084115510540
:1014000039F0BE016F5B7F4F87E698E00E940917B5
:1014100061E022968FAD2297813319F060E001C020
:10142000682FCE018F5B9F4F0E945517BE016F5BE7
:101430007F4FCE0183579F4F0E94D016CE018F5B06
:101440009F4F0E94050F6FED72E0CE018F5B9F4FA3
:101450000E94130FBE0163577F4FCE018F5B9F4FDA
:101460000E942B170E943E17CE018F5B9F4F0E9458
:10147000050F64EE72E0CE018F5B9F4F0E94130F49
:10148000CE018F5B9F4F0E948E17CE018F5B9F4FC7
:101490000E94050F87E698E00E94AD03811116C0F7
:1014A00040916B0850916C084115510539F0BE010F
:1014B0006F5B7F4F87E698E00E94091761E02296F4
:1014C0008FAD2297813319F060E001C0682FCE0103
:1014D0008F5B9F4F0E945517BE016F5B7F4FCE0100
:1014E0008D569F4F0E94D016CE018F5B9F4F0E945A
:1014F000050F6EEE72E0CE018F5B9F4F0E94130FBF
:10150000BE016D567F4FCE018F5B9F4F0E942B1700
:101510000E943E17CE018F5B9F4F0E94050F63EF25
:1015200072E0CE018F5B9F4F0E94130FCE018F5B45
:101530009F4F0E948E17CE018F5B9F4F0E94050F19
:10154000CE0187569F4F0E94AD036FEF72E0CE0130
:101550008F5B9F4F0E94130FBE0167567F4FCE01D6
:101560008F5B9F4F0E942B170E943E17CE018F5B0F
:101570009F4F0E94050F6DE073E0CE018F5B9F4F80
:101580000E94130FCE018F5B9F4F0E948E17CE01DA
:101590008F5B9F4F0E94050F87E698E00E94AD0386
:1015A00081E00E94F715FF92EF92DF92CF921F9396
:1015B0000F930E94B92AC8010E942E1662E273E0BE
:1015C00086E797E00E946F128FEFE81AF80AC701CA
:1015D000B5010E94D7270F900F900F900F900F909A
:1015E0000F90892BF1F56CE273E0CE018F5B9F4F7A
:1015F0000E94130F27968EAC9FAC2797E12CF12CFD
:10160000E814F9040CF527968EAD9FAD2797E816E0
:10161000F90658F423968EAD9FAD2397009729F0D5
:10162000FC01EE0DFF1D608101C060E089ED96E0D8
:101630000E94351F61E070E080E090E00E94451A52
:101640008FEFE81AF80ADCCF60ED77E080E090E0F9
:101650000E94451ACE018F5B9F4F0E94050FE12C1F
:10166000F12C68E873E180E090E00E94451AF6CD25
:1016700082E00E94F71581E393E00E942E1660ED50
:1016800077E080E090E00E94451A0E940016CE01AB
:1016900087569F4F0E94050FCE018D569F4F0E9487
:1016A000050FCE0183579F4F0E94050FCE0189572A
:1016B0009F4F0E94050FCE018F579F4F0E94050F2D
:1016C000CE0185589F4F0E94050FCE018B589F4F2A
:1016D0000E94050FCE0181599F4F0E94050FCE0138
:1016E00087599F4F0E94050FCE018D599F4F0E9431
:1016F000050FCE01835A9F4F0E94050FC256DF4F40
:101700000FB6F894DEBF0FBECDBFDF91CF911F9112
:101710000F91FF90EF90DF90CF90BF90AF909F9090
:101720008F907F906F905F904F9008950895CF9223
:10173000DF92EF92FF920F931F93CF93DF936C0191
:101740007A018B01C0E0D0E0CE15DF0581F0D80131
:101750006D918D01D601ED91FC910190F081E02D0C
:10176000C6010995892B11F02196EECF7E01C701A4
:10177000DF91CF911F910F91FF90EF90DF90CF906D
:1017800008952F923F924F925F926F927F928F9225
:101790009F92AF92BF92CF92DF92EF92FF920F9300
:1017A0001F93CF93DF9300D000D0CDB7DEB7FC01FD
:1017B000448055804114510409F413C1FB01848015
:1017C00095808114910409F40CC17A016B019C830A
:1017D0008B83FA016480758068187908FC010081A8
:1017E000118161147104D1F4F60160817181C80125
:1017F0000E949F2A9A838983009709F4F2C0F70117
:1018000060817181448155810E94652AF7010481BC
:10181000158129813A81020F131FE6CF77FE49C057
:101820005801F60160817181C5010E949F2A2C0137
:10183000009729F14C018A189B08A401B501C80141
:101840000E94652A080D191DF7016081718144818C
:101850005581C8010E94652AF70184819581080F8E
:10186000191FF601A480B580A40CB51CEB81FC8186
:1018700084819581860D971D95838483D2CFB50190
:10188000C8010F900F900F900F90DF91CF911F9193
:101890000F91FF90EF90DF90CF90BF90AF909F900F
:1018A0008F907F906F905F904F903F902F900C940F
:1018B000892AFB01208031805201C801B1010E94B8
:1018C0009F2A009729F0880D991DA60CB71CF6CF0A
:1018D0004A145B0409F485C0EB81FC818281938109
:1018E0008A159B0578F4B5016F5F7F4FC8010E9490
:1018F0003029009709F475C0EB81FC8191838083C6
:10190000B382A282EB81FC8104811581015011090F
:1019100017FD67C04801F601248035802114310489
:1019200009F45FC0EB81FC81A480B580A114B104EF
:1019300009F457C0A214B30408F453C00A151B05D8
:1019400020F04501F1E08F1A9108EB81FC81408085
:101950005180C2010FEF1FEF9201280D391D3A830C
:101960002983E981FA81E817F90780F0F60160819F
:1019700071810E949F2A009749F09C012419350922
:101980008216930608F089010196EBCF17FD29C056
:10199000200E311EC201820D931DA501421953096B
:1019A000BC01860D971D0E946E2AEB81FC8184810B
:1019B0009581860D971D9583848320813181F9015E
:1019C000E80FF91F1082EB81FC8180819181F70182
:1019D0006081718144815581800F911F0E94652A29
:1019E00095CF0F900F900F900F90DF91CF911F9197
:1019F0000F91FF90EF90DF90CF90BF90AF909F90AE
:101A00008F907F906F905F904F903F902F900895B0
:101A10000F931F93CF93DF93EC01888199810097F7
:101A200029F02A813B812617370788F48B016F5FE5
:101A30007F4F0E943029009761F0998388831B8330
:101A40000A832C813D81232B11F4FC01108281E05B
:101A500001C080E0DF91CF911F910F910895FC01AB
:101A600024813581FB01448155812417350721F5F7
:101A7000FC0180819181FB0160817181009719F0E7
:101A800061157105A1F46115710549F0232BB1F0C1
:101A9000FB01808190E09195819591090AC00097A2
:101AA00069F0232B59F0FC01808190E002C00E9474
:101AB000802A21E0892B19F020E001C021E0822F4B
:101AC0000895AF92BF92CF92DF92EF92FF920F9361
:101AD0001F93CF93DF93DC01CD90DC901197C1145D
:101AE000D10409F443C01496CD91DC911597209749
:101AF000E9F18C0176015701BFEFAB1ABB0AF70180
:101B00008081082E000C990B0E947024892B11F003
:101B10007501F1CF2197CC0DDD1D8881082E000CB9
:101B2000990B0E947024892B29F0CE15DF0510F047
:101B30002197F3CFAE014F5F5F4F4E195F09D80178
:101B400015965C934E931497CE14DF0420F4B701DE
:101B5000C6010E94652AD801ED91FC911197149657
:101B60008D919C911597E80FF91F1082DF91CF910D
:101B70001F910F91FF90EF90DF90CF90BF90AF90AB
:101B8000089510927606109275061092B70610927C
:101B9000D8061092B50681E08093B40610928F06A5
:101BA00061E08DE10E94C31961E08CE10E94C319DC
:101BB000E9EBF0E080818E7F808380818D7F808360
:101BC00088E48093B80085E48093BC0083EE98E1BC
:101BD000909374068093730684EE98E19093720656
:101BE0008093710608959091B5069111FCCF91E014
:101BF0009093B5064093B4062FEF2093B30610924E
:101C0000B206260F2093B10690939006909190060D
:101C1000880F892B8093900680918F06813061F424
:101C200010928F06809190068093BB008091BC003B
:101C300083FDF8CF85EC01C085EE8093BC008091D8
:101C4000B5068130E1F38091B206861710F46091F9
:101C5000B206A1E9B6E0E1E5F6E080E0861721F002
:101C60009D9191938F5FFACF089541E061E088E6FE
:101C70000E94F30D10927606809375060895CF9317
:101C8000DF9388E60E94CB158AE090E00E94C6159B
:101C90000E946A150E94350E8BE598E00E94F518A7
:101CA000EC0188E60E94CB158AE090E00E94C61500
:101CB000CE0180680E94C615DF91CF910C946A1501
:101CC00088E60E94CB158FE090E00E94C6150E9426
:101CD0006A150E94350E8BE598E00E94F51886FB88
:101CE000882780F990E00895EF92FF920F931F9359
:101CF000CF93DF936115710511F480E01CC041158D
:101D00005105C1F07B01EC018C819D818A01080F96
:101D1000191FB801CE010E94080D882371F3288194
:101D200039818C819D81B701820F931F0E94892A7E
:101D30001D830C8381E0DF91CF911F910F91FF9064
:101D4000EF900895CF93DF93EC01888199810097FC
:101D500011F00E94A728198218821D821C821B8202
:101D60001A82DF91CF910895CF93DF93EC01611533
:101D7000710561F0FB0101900020E9F73197AF0197
:101D8000461B570B0E94740E811103C0CE010E94A6
:101D9000A20ECE01DF91CF910895EF92FF920F93A3
:101DA0001F93CF93DF93EC017B018A01BA010E945C
:101DB000080D811104C0CE010E94A20E07C01D8330
:101DC0000C83B701888199810E94892ACE01DF9115
:101DD000CF911F910F91FF90EF900895CF93DF93D4
:101DE000EC01FB018617970761F060817181611535
:101DF000710529F0448155810E94CD0E02C00E94D8
:101E0000A20ECE01DF91CF910895FC0180819181D6
:101E10000C94A728FC011182108213821282158271
:101E200014820C94EE0EFC01118210821382128235
:101E3000158214826115710551F0FB01019000209B
:101E4000E9F73197AF01461B570B0C94CD0E08955F
:101E5000CF92DF92EF92FF920F931F93CF93DF9376
:101E6000CDB7DEB7CC54D1090FB6F894DEBF0FBEA4
:101E7000CDBF6C017B018A010E94001680E00E94A8
:101E8000F71589E393E00E942E1681E00E94F71572
:101E900089E493E00E942E1661EB71E0CE01019679
:101EA0000E94130F6DE973E0CE018F5B9F4F0E947C
:101EB000130FAE014F5F5F4FBE016F5B7F4FC601D7
:101EC0000E94C10BCE018F5B9F4F0E94050FCE0178
:101ED00001960E94050F40E450E0BE016F5F7F4F06
:101EE000C6010E94091782E00E94F715CE010196F3
:101EF0000E942E1683E00E94F71580E593E00E9471
:101F00002E1661EB71E0CE018F5B9F4F0E94130F85
:101F10006DE973E0CE01895B9F4F0E94130FAE0104
:101F20004F5B5F4FBE01695B7F4FC7010E94C10BD2
:101F3000CE01895B9F4F0E94050FCE018F5B9F4FA3
:101F40000E94050F40E450E0BE016F5F7F4FC70164
:101F50000E94091784E00E94F715CE0101960E94A5
:101F60002E1685E00E94F71587E593E00E942E1655
:101F700061EB71E0CE018F5B9F4F0E94130F6DE903
:101F800073E0CE01895B9F4F0E94130FAE014F5B40
:101F90005F4FBE01695B7F4FC8010E94C10BCE013C
:101FA000895B9F4F0E94050FCE018F5B9F4F0E9460
:101FB000050F40E450E0BE016F5F7F4FC8010E94F3
:101FC000091786E00E94F715CE0101960E942E1691
:101FD000C45BDF4F0FB6F894DEBF0FBECDBFDF91FD
:101FE000CF911F910F91FF90EF90DF90CF900895C8
:101FF0000F931F93CF93DF93CDB7DEB72C970FB618
:10200000F894DEBF0FBECDBF8C016EE573E0CE014C
:1020100007960E94130FB801CE0107960E942B1756
:1020200062EC73E00E94B40EBC01CE0101960E94E6
:102030000A0FCE0101960E948E17CE0101960E94D2
:10204000050FCE0107960E94050F87E698E00E94D3
:10205000AD032C960FB6F894DEBF0FBECDBFDF9157
:10206000CF911F910F9108950F931F93CF93DF93FB
:10207000CDB7DEB72C970FB6F894DEBF0FBECDBF3D
:102080008C0168E673E0CE0107960E94130FB80139
:10209000CE0107960E942B1762EC73E00E94B40EEB
:1020A000BC01CE0101960E940A0FCE0101960E944A
:1020B0008E17CE0101960E94050FCE0107960E9451
:1020C000050F87E698E00E94AD032C960FB6F894B2
:1020D000DEBF0FBECDBFDF91CF911F910F9108954D
:1020E0000F931F93CF93DF93CDB7DEB72C970FB627
:1020F000F894DEBF0FBECDBF8C0160E773E0CE0168
:1021000007960E94130FB801CE0107960E942B1765
:1021100062EC73E00E94B40EBC01CE0101960E94F5
:102120000A0FCE0101960E948E17CE0101960E94E1
:10213000050FCE0107960E94050F87E698E00E94E2
:10214000AD032C960FB6F894DEBF0FBECDBFDF9166
:10215000CF911F910F9108950F931F93CF93DF930A
:10216000CDB7DEB72C970FB6F894DEBF0FBECDBF4C
:102170008C016BE773E0CE0107960E94130FB80144
:10218000CE0107960E942B1762EC73E00E94B40EFA
:10219000BC01CE0101960E940A0FCE0101960E9459
:1021A0008E17CE0101960E94050FCE0107960E9460
:1021B000050F87E698E00E94AD032C960FB6F894C1
:1021C000DEBF0FBECDBFDF91CF911F910F9108955C
:1021D0008F929F92AF92BF92EF92FF920F931F93B5
:1021E000CF93DF93CDB7DEB7A1970FB6F894DEBFDC
:1021F0000FBECDBF7C01FA01CB0119A2223008F439
:102200002AE08E010F5D1F4F822E912CA12CB12C44
:10221000BF01A50194010E94D325F901CA01015013
:1022200011096A3014F4605D01C0695CD8016C93D7
:10223000232B242B252B61F7B801C7010E94A41F73
:10224000A1960FB6F894DEBF0FBECDBFDF91CF9140
:102250001F910F91FF90EF90BF90AF909F908F9044
:102260000895CF92DF92EF92FF92CF93DF936C01AC
:10227000990FEE08FF08F7FE13C08DE20E94651566
:10228000EC0144275527BA014C195D096E097F09F5
:102290002AE086E797E00E94E810C80FD91F08C01F
:1022A0002AE0B701A60186E797E00E94E810EC015A
:1022B0006FEA71E086E797E00E94A41F8C0F9D1FD4
:1022C000DF91CF91FF90EF90DF90CF900895CF9264
:1022D000DF92EF92FF92CF93DF936C01990FEE089C
:1022E000FF08F7FE19C08DE20E946515EC01442736
:1022F0005527BA014C195D096E097F092AE086E766
:1023000097E00E94E8108C0F9D1FDF91CF91FF9006
:10231000EF90DF90CF9008952AE0B701A60186E7FD
:1023200097E0DF91CF91FF90EF90DF90CF900C94EA
:10233000E8108F929F92AF92BF92CF92DF92EF926E
:10234000FF920F931F93CF93DF936B017C01142FA8
:102350009B01AC010E949127882319F066E873E085
:1023600027C046015701E894B7F82FEF3FEF4FE73A
:102370005FE7C501B4010E94912781110DC02FEFC5
:102380003FEF4FE75FE7C501B4010E94AF24181685
:102390001CF46AE873E00CC02FEF3FEF4FE75FE4F7
:1023A000C701B6010E943C27181694F46EE873E04A
:1023B00086E797E0DF91CF911F910F91FF90EF900B
:1023C000DF90CF90BF90AF909F908F900C94A41F00
:1023D0002FEF3FEF4FE75FECC701B6010E94AF243C
:1023E00087FDE4CF20E030E0A901C701B6010E94DB
:1023F000AF2487FF09C08DE20E946515EC01F7FA52
:10240000F094F7F8F09402C0C0E0D0E000E060E0A3
:1024100070E080E09FE3101741F020E030E040E200
:1024200051E40E949B260F5FF6CFA70196010E9400
:102430002F266B017C010E940D274B015C012AE0D5
:10244000AB01BC0186E797E00E94E810C80FD91FD6
:102450001123B9F1C501B4010E94B4249B01AC0160
:10246000C701B6010E942E266B017C018EE20E94FC
:102470006515C80FD91F20E030E040E251E4C701E4
:10248000B6010E9415254B015C010E940D276B01CE
:10249000E12CF12C2AE0B701A60186E797E00E9423
:1024A000E810C80FD91FC701B6010E94B4249B01D0
:1024B000AC01C501B4010E942E266B017C011150B4
:1024C000D1F6CE01DF91CF911F910F91FF90EF9048
:1024D000DF90CF90BF90AF909F908F9008950F9313
:1024E0001F93CF93DF93EC010E94A41F8C016FEA2E
:1024F00071E0CE010E94A41F800F911FDF91CF9148
:102500001F910F9108950C94A41FAF92BF92CF9288
:10251000DF92EF92FF920F931F93CF93DF938C0183
:10252000EB017A0169813881432F50E08A8190E084
:10253000E5E8F1E021E0261730F47491870F911D52
:102540002F5F3196F8CF633018F0337009F401969D
:102550006DE671E0469F9001479F300D569F300D0C
:102560001124215031094D5F5F4F5695479556957F
:102570004795240F351F280F391FA8E1B0E00E94AE
:102580001F262B815B016C01A20EB11CC11CD11C4A
:10259000A6019501ACE3B0E00E9414262C815B01FA
:1025A0006C01A20EB11CC11CD11CA60195010E9498
:1025B00014262D81AB01BC01420F511D611D711DFF
:1025C000F70180819181A281B38180589C4BA249FF
:1025D000B74C480F591F6A1F7B1FC8010E94CD1DB1
:1025E000C801DF91CF911F910F91FF90EF90DF9085
:1025F000CF90BF90AF900895AF92BF92CF92DF92ED
:10260000EF92FF920F931F93CF93DF93EC018B0117
:10261000F8018081853209F487C03CF4882309F4ED
:102620009AC1843209F41EC12AC1883299F08932D4
:1026300009F025C1B8016F5F7F4FE0917808F091F4
:102640007908CF010197EE0FFF1FEE0FFF1FE3592F
:10265000F74F4BC0F801218180917808909179085B
:10266000B801293299F46E5F7F4F8032910514F0E2
:102670008AEFD9C0FC01EE0FFF1FEE0FFF1FE359D9
:10268000F74FD687C5872EEF3FEF10C06F5F7F4FA4
:10269000803291056CF7FC01EE0FFF1FEE0FFF1F5C
:1026A000E359F74FD687C5872FEF3FEF308B27874A
:1026B00001969093790880937808CE010E94FC12CD
:1026C000009709F04CC180917808909179080197A2
:1026D000909379088093780824C03497E784F08831
:1026E0002FEFE216F20629F0019797FFF6CF8EEF53
:1026F0009AC0880F991F880F991F8C010359174F93
:10270000F801858596859E01281B390B308B27871C
:10271000CE010E94FC12009709F021C1F801F08A55
:10272000E78680E090E01BC1F8018181823619F0D4
:10273000863651F158C0F8012281222319F03381E5
:10274000311102C08BEF6FC088812813EACF6091EE
:10275000720870917308FE01319681E090E0E617EF
:10276000F707F8F6419134130BC00197C1F7EF0159
:10277000EF2BB9F27801F4E0EF0EF11C870148CF9E
:102780002413EDCF0196EBCF680122E0C20ED11CDD
:10279000F80182818B3511F089EF45C0C6010E9496
:1027A000451E7C0180916E0890916F08C817D9076B
:1027B00021F0FE013197808101C080E08701015046
:1027C0001109A801B60190E00E94771E892B09F03B
:1027D000A8CF8881A801B60190E00E94771E892BBE
:1027E00009F49FCFCBCF90E09C01205331092A30D0
:1027F000310508F044C0C19797FD14C020917808B6
:1028000030917908821793076CF4880F991F880F0D
:10281000991FFC01E359F74FE784F0882FEFE21688
:10282000F20619F48FEF0E941C03809172089091B8
:1028300073088C1B9D0B8E159F0508F472CFA701A2
:10284000BE01858596850E94582A892B09F069CF9B
:10285000CE0DDF1D209709F464CF780132E0E30E3E
:10286000F11C8CCFF8018181811109C0809172081F
:1028700090917308C817D90709F471C052CFC801E5
:102880000E94451E7C018091720890917308C817C0
:10289000D90748F48881A701B80190E00E94C81EBA
:1028A00021E0892B09F420E0F70180818B32D9F0F7
:1028B0003CF48A3209F04AC0A701B801CE011AC01F
:1028C0008D3221F18F3309F041C087010F5F1F4F17
:1028D000222309F442C0B801CE0101960E94FC12E5
:1028E0000097D9F13CC0222309F41BCFA701B801FE
:1028F000CE010196DF91CF911F910F91FF90EF9044
:10290000DF90CF90BF90AF900C94BA145E01670136
:10291000FFEFCF1ADF0AE501B601C5010E94FC12E4
:102920000097E9F48091720890917308A816B9068F
:1029300008F0F7CE2FEFA21AB20A8881A701B801DA
:1029400090E00E94C81E892B31F7EBCE222309F4B8
:10295000E8CE219613CFCE0102C078010FCFDF91D0
:10296000CF911F910F91FF90EF90DF90CF90BF908C
:10297000AF9008958F929F92AF92BF92CF92DF92C5
:10298000EF92FF920F931F93CF93DF937C016B0124
:102990004A01A0907208B0907308EC018E010E19E4
:1029A0001F09FE01CA15DB0548F421968081A401A8
:1029B000B60190E00E94C81E892B81F78FEF881A1C
:1029C000980AB401C701800F911F0E94FC12009762
:1029D00029F401501109A8F780E090E0DF91CF9130
:1029E0001F910F91FF90EF90DF90CF90BF90AF902D
:1029F0009F908F900895CF92DF92EF92FF92CF93A6
:102A0000DF93EC016A017B01E889F98982E0808328
:102A10004115514E61057105B1F060E079E08DE33B
:102A200090E0A70196010E94D325DA01C901019720
:102A3000A109B109B695A795979587959C01211590
:102A400080E13807A8F0E889F989108260E874E825
:102A50008EE190E0A70196010E94D325DA01C90119
:102A60000197A109B109B695A795979587959C01FE
:102A7000EC85FD853083EE85FF852083188EEC89FB
:102A8000FD8986E08083EA89FB898081806180837B
:102A9000EA89FB89808188608083EA89FB8980815B
:102AA00080688083EA89FB8980818F7D8083DF91C4
:102AB000CF91FF90EF90DF90CF900895462F50E098
:102AC00060E070E02AE00C94E810682F86E797E059
:102AD0000C94351F3091D806313208F04BC08091EC
:102AE000B5068111FCCF9091000922E02093B50634
:102AF00021E02093B4062FEF2093B3061092B20684
:102B00003093B106E8EBF6E0A1E9B6E020E0321739
:102B100021F041914D932F5FFACF109290062091B2
:102B20009006990F922B9093900690918F0691307A
:102B300061F410928F06909190069093BB00909153
:102B4000BC0093FDF8CF95EC01C095EE9093BC00CE
:102B50009091B5069230E1F39091B3069F3F79F0E2
:102B60008091B306803241F08091B306803331F01A
:102B700084E005C081E003C082E001C083E01092E0
:102B8000B7061092D8061092B6060895682F8BE506
:102B900098E00C943E1991E09093B606809300095A
:102BA0001092B7061092D8060895CF93C82F8CE3E1
:102BB0000E94CB1580E490E00E94C6156C2F8BE537
:102BC00098E00E943E19CF910C946A15CF93C82FBC
:102BD0008CE30E94CB1580E890E00E94C6156C2F14
:102BE0008BE598E00E943E19CF910C946A158055B0
:102BF0000E94E61580E00E94E61580E10C94E6153F
:102C0000EF92FF920F931F93CF93DF938EEA0E9470
:102C1000E615C0E089E9E82E81E0F82E8C2F0E94AD
:102C2000F715D0E101E911E0F80184910E94D51572
:102C30000F5F1F4FE016F106B9F7D15099F7CF5F3C
:102C4000C83061F78FEA0E94E61580E0DF91CF91EE
:102C50001F910F91FF90EF900C94F715DF92EF9278
:102C6000FF920F931F93CF93DF938C01D12CF80128
:102C7000ED0DF11DC081CC23E9F080EE8C0F803684
:102C800008F0C0E288E0C89FE0011124E12CF12C9B
:102C9000DA95FE01EE0DFF1DEF56FE4F84910E9466
:102CA000D5158FEFE81AF80A88E0E816F10489F7DD
:102CB000D394DDCFDF91CF911F910F91FF90EF90D3
:102CC000DF900895CF92DF92EF92FF920F931F93C0
:102CD000CF93DF9300D0CDB7DEB79A83898387E7A0
:102CE00096E00E942F24882319F080936D084DC030
:102CF000EDE6F8E0018112810115110519F488EF64
:102D00000E941C0383819481E981FA8120812E3500
:102D100039F43196FA83E983CC24C394D12C02C0D0
:102D2000C12CD12C800F911F90937308809372084F
:102D30008DE6E82E88E0F82EF70114861386698167
:102D40007A81C8010E94FC12009779F0F701218175
:102D50003281A801421B530B50874783801B910B84
:102D60009287818781E0808310C0C8010196F701B6
:102D7000258136810217130728F4C114D10411F4F8
:102D80008C01DACF10926D0880E00F900F90DF91E8
:102D9000CF911F910F91FF90EF90DF90CF9008950A
:102DA0000F931F93CF93DF938C01EB01FC01808184
:102DB00091810097B1F0688179816115710579F091
:102DC000428153812C813D814217530740F00E947C
:102DD000892A8C819D81F8019583848313C00E9488
:102DE000A72888819981F801918380838A819B81BA
:102DF000938382838C819D81958384831982188239
:102E00001B821A821D821C82DF91CF911F910F912C
:102E100008950F931F93CF93DF93FC01C481D58155
:102E2000209719F4FB01108211C0415051094C1731
:102E30005D0708F4EA018B01FC0160817181AE013C
:102E4000C8010E94902AC00FD11F1882DF91CF9134
:102E50001F910F910895CF93DF93EC01FB01448103
:102E60005581608171810E94740E811103C0CE0171
:102E70000E94A20ECE01DF91CF910895CF93DF93F0
:102E8000FC01448155816081718186E797E00E9451
:102E9000970BEC016FEA71E086E797E00E94A41FB0
:102EA0008C0F9D1FDF91CF910895EF92FF920F93AA
:102EB0001F93CF93DF93CDB7DEB729970FB6F89462
:102EC000DEBF0FBECDBF8C01862FF80111821082AC
:102ED00013821282158214824AE09E012F5F3F4FB7
:102EE0007901B90190E00E948224F701019000204D
:102EF000E9F73197AF014E195F09B701C8010E9488
:102F0000CD0E29960FB6F894DEBF0FBECDBFDF9170
:102F1000CF911F910F91FF90EF9008958F929F9204
:102F2000AF92BF92EF92FF920F931F93CF93DF93D5
:102F300000D000D000D0CDB7DEB77C01FC01A4806A
:102F4000B58000E010E00A151B05ECF4F701848160
:102F500095810817190748F480819181009729F01D
:102F6000FC01E00FF11F608101C060E089ED96E097
:102F70000E94351F61E070E080E090E00E94451AF9
:102F80000F5F1F4FE0CF64E670E080E090E00E94AA
:102F9000451A0E947F1A4B015C0189ED96E00E9460
:102FA000151F892BF1F40E947F1ADC01CB018819CF
:102FB0009909AA09BB09893B9B40A105B10568F3A2
:102FC00062E973E0CE0101960E94130FB701CE01B2
:102FD00001960E942B170E943E17CE0101960E9477
:102FE000050F26960FB6F894DEBF0FBECDBFDF915A
:102FF000CF911F910F91FF90EF90BF90AF909F9056
:103000008F9008950F931F93CF93DF9300D000D03C
:1030100000D0CDB7DEB78C016FE973E0CE01019629
:103020000E94130FCE0101960E948E17CE010196C9
:103030000E94050FC8010E94AD0326960FB6F894B2
:10304000DEBF0FBECDBFDF91CF911F910F910895CD
:103050000F931F93CF93DF9300D000D000D0CDB754
:10306000DEB78C016CEA73E0CE0101960E94130F6B
:10307000CE0101960E948E17CE0101960E94050F87
:10308000C8010E94AD0326960FB6F894DEBF0FBEAE
:10309000CDBFDF91CF911F910F9108950F931F9393
:1030A000CF93DF9300D000D000D0CDB7DEB78C0136
:1030B00069EB73E0CE0101960E94130FCE010196D9
:1030C0000E948E17CE0101960E94050FC8010E9432
:1030D000AD0326960FB6F894DEBF0FBECDBFDF91CD
:1030E000CF911F910F91089580E090E0892B21F0FE
:1030F0000E942B1F811109C080E090E0892B51F0C4
:103100000E94211F811104C008950E940000F4CF85
:103110000C94000008953FB7F89480914F09909166
:103120005009A0915109B091520926B5A89B05C03C
:103130002F3F19F00196A11DB11D3FBFBA2FA92F36
:10314000982F8827820F911DA11DB11DBC01CD01B3
:1031500042E0660F771F881F991F4A95D1F708959F
:10316000089585ED8093BC008091BC0084FDFCCF68
:103170001092B506089540912709262F30E0240FBC
:10318000311D21323105DCF42091B5062430C9F41B
:10319000FC0180E090E0861758F4309127092191D6
:1031A000DC01A95FB64FA30FB11D2C930196F3CF9D
:1031B00080912709680F6093270980E0089581E0D6
:1031C000089582E00895089508950895E09176069F
:1031D00080917506E81730F4F0E0EF5AF94F8081DE
:1031E00090E008958FEF9FEF08959091760680917B
:1031F0007506981750F4E92FF0E0EF5AF94F208147
:1032000030E09F5F9093760602C02FEF3FEFC90139
:1032100008958091750690E020917606821B9109B1
:103220000895CF92DF92EF92FF920F931F93CF9367
:10323000DF937C01CB018A012091B606222389F01D
:10324000EB016B01C40ED51ECC15DD0569F069914B
:10325000D701ED91FC910190F081E02DC701099516
:10326000F3CF642F0E94BB18C801DF91CF911F914B
:103270000F91FF90EF90DF90CF900895CF93DF9361
:103280001F92CDB7DEB769832091B6062223D1F015
:103290002091D806203240F021E030E0FC01338359
:1032A000228380E090E015C08091B706E82FF0E01F
:1032B000E854F94F998190838F5F8093B70680938C
:1032C000D80605C061E0CE0101960E94BB1881E0DE
:1032D00090E00F90DF91CF91089580E090E0089505
:1032E0000E94152AFC01848DDF01A80FB11DA35A8D
:1032F000BF4F2C91848D90E001968F739927848F16
:10330000A689B7892C93A089B1898C918370806438
:103310008C93938D848D981306C00288F389E02DD9
:1033200080818F7D8083089590E0FC013197EA30A1
:10333000F10540F5ED58FF4F0C94EB27809180008C
:103340008F7703C0809180008F7D809380000895E7
:1033500084B58F7702C084B58F7D84BD0895809138
:10336000B0008F7703C08091B0008F7D8093B00054
:103370000895809190008F7703C0809190008F7D99
:103380008093900008951F93CF93DF93282F30E010
:10339000F901EB51FB4F8491F901EB53FB4FD491B1
:1033A000F901EB55FB4FC491CC23C1F0162F8111CD
:1033B0000E949419EC2FF0E0EE0FFF1FE556FB4F33
:1033C000A591B4919FB7F894111104C08C91D09538
:1033D000D82302C0EC91DE2BDC939FBFDF91CF910D
:1033E0001F910895CF93DF9390E0FC01EB53FB4FC7
:1033F0002491FC01EB55FB4F8491882361F190E00F
:10340000880F991FFC01EF56FB4FC591D491FC0129
:10341000E556FB4FA591B491611109C09FB7F8948F
:103420008881209582238883EC912E230BC0623003
:1034300061F49FB7F8948881322F30958323888375
:10344000EC912E2B2C939FBF06C08FB7F894E88188
:103450002E2B28838FBFDF91CF910895883108F0FC
:1034600088518770806480937C0080917A008064AA
:1034700080937A0080917A0086FDFCCF809178005D
:103480002091790090E0922B08958F929F92AF92B5
:10349000BF92CF92DF92EF92FF926B017C010E946C
:1034A0008B184B015C01C114D104E104F104F1F06B
:1034B0000E948B18DC01CB0188199909AA09BB0964
:1034C000883E9340A105B10570F321E0C21AD108EE
:1034D000E108F10888EE880E83E0981EA11CB11C5B
:1034E000C114D104E104F10419F7DDCFFF90EF908E
:1034F000DF90CF90BF90AF909F908F9008952FB79F
:10350000F89460914B0970914C0980914D0990910C
:103510004E092FBF08951F920F920FB60F921124DC
:103520002F933F938F939F93AF93BF9380914B09BA
:1035300090914C09A0914D09B0914E0930914A09E2
:1035400023E0230F2D3720F40196A11DB11D05C0E6
:1035500026E8230F0296A11DB11D20934A098093EE
:103560004B0990934C09A0934D09B0934E0980915B
:103570004F0990915009A0915109B09152090196BB
:10358000A11DB11D80934F0990935009A09351093B
:10359000B0935209BF91AF919F918F913F912F911D
:1035A0000F900FBE0F901F9018951F920F920FB69D
:1035B0000F9211240BB60F922F933F934F935F936B
:1035C0006F937F938F939F93AF93BF93EF93FF93EB
:1035D000E0910401F09105010995FF91EF91BF91F0
:1035E000AF919F918F917F916F915F914F913F919B
:1035F0002F910F900BBE0F900FBE0F901F9018953C
:103600001F920F920FB60F9211240BB60F922F93A9
:103610003F934F935F936F937F938F939F93AF935A
:10362000BF93EF93FF93E0910201F091030109959D
:10363000FF91EF91BF91AF919F918F917F916F918A
:103640005F914F913F912F910F900BBE0F900FBE46
:103650000F901F9018951F920F920FB60F92112482
:103660000BB60F922F933F934F935F936F937F937C
:103670008F939F93AF93BF93EF93FF93E0910001DC
:10368000F09101010995FF91EF91BF91AF919F9149
:103690008F917F916F915F914F913F912F910F90FB
:1036A0000BBE0F900FBE0F901F9018951F920F9298
:1036B0000FB60F9211248F930FB6F894A8958091AE
:1036C0006000886180936000109260000FBE8F914F
:1036D0000F900FBE0F901F9018954115510529F4BA
:1036E000EAE7F0E080818F7780836A307105A9F086
:1036F00063FD02C088E001C088E26770682B88E142
:103700000FB6F894A895809360000FBE6093600098
:10371000E0E6F0E0808180648083232B79F483B736
:10372000817F846083BFF89483B7816083BF78947E
:10373000889583B78E7F83BF78940EC083B7817FCF
:10374000846083BFF89483B7816083BF7894889541
:1037500083B78E7F83BF7894452B29F4EAE7F0E0A6
:1037600080818068808308951F920F920FB60F9218
:1037700011240BB60F922F933F934F935F936F9348
:103780007F938F939F93AF93BF93EF93FF9380911A
:10379000B900887F803609F49CC068F5883209F446
:1037A0005BC090F4803109F454C038F4882309F4E4
:1037B000F6C0883009F44DC0F6C0883109F44CC019
:1037C000803209F45DC0EFC0803409F468C048F469
:1037D000803309F455C0883309F0E5C08093B306FF
:1037E000D8C0803509F44FC0883509F45DC08834ED
:1037F00009F0D9C0D6C0883909F4C7C0A8F4883701
:1038000009F467C038F4883609F463C0803709F4D6
:1038100060C0C9C0883809F4B8C0803909F45FC0F5
:10382000803809F0C0C05BC0803B09F486C038F422
:10383000803A09F466C0883A09F47FC0B4C0803C7D
:1038400009F4A7C0883C09F4A4C0883B09F48AC0E5
:10385000AAC08091900610C09091B2068091B106E6
:10386000981770F5E091B20681E08E0F8093B20652
:10387000F0E0EF56F94F80818093BB0085EC86C065
:103880008093B3068EC0E091B20681E08E0F8093E4
:10389000B2068091BB00F0E0EF56F94F8083909123
:1038A000B2068091B1066EC0E091B20681E08E0F43
:1038B0008093B2068091BB00F0E0EF56F94F808311
:1038C0008091B40681116DC081E080938F0684EAF7
:1038D00061C083E08093B50610924909CFCF8091F3
:1038E0004909803208F051C0E091490981E08E0F0A
:1038F000809349098091BB00F0E0E75DF64F80833B
:10390000BDCF85EC8093BC001092B506809149092B
:10391000803230F4E0914909F0E0E75DF64F108223
:103920006091490970E0E0917106F091720689E2B8
:1039300099E009951092490936C084E08093B50654
:103940001092280910922709E0917306F0917406ED
:10395000099580912709811105C081E0809327098D
:1039600010920709E091280981E08E0F80932809C1
:10397000F0E0E95FF64F80818093BB0090912809C9
:1039800080912709981708F479CF85E88093BC00C7
:103990000AC085EC8093BC001092B50604C010925A
:1039A000B3060E94B118FF91EF91BF91AF919F9123
:1039B0008F917F916F915F914F913F912F910F90D8
:1039C0000BBE0F900FBE0F901F9018951F93CF93B3
:1039D000DF93EC0188E60E94CB158AE090E00E941C
:1039E000C61529811AE0822F612F0E94CB27682FEC
:1039F000660F860F880F682F620F8BE598E00E9494
:103A00003E192A81822F612F0E94CB27682F660FD3
:103A1000860F880F682F620F8BE598E00E943E1991
:103A20002B81822F612F0E94CB27682F660F860F74
:103A3000880F682F620F8BE598E00E943E192C8159
:103A4000822F612F0E94CB27682F660F860F880F69
:103A5000682F620F8BE598E00E943E192D81822F1E
:103A6000612F0E94CB27682F660F860F880F682F63
:103A7000620F8BE598E00E943E1980E090E00E9482
:103A8000C615DF91CF911F910C946A15CF92DF92EA
:103A9000EF92FF920F931F93CF93DF93EC0188E691
:103AA0000E94CB1581E090E00E94C6150E946A1525
:103AB00041E067E088E60E94F30D1092760680935D
:103AC00075068BE598E00E94F5188F77982F9295F0
:103AD0009F701AEF082F919F000D11248BE598E03D
:103AE0000E94F5188F77982F92959F70C82E919FFE
:103AF000C00C11248BE598E00E94F5188F73982F65
:103B000092959F70D82E919FD00C11248BE598E050
:103B10000E94F5188BE598E00E94F5188F73982F96
:103B200092959F70F82E919FF00C11248BE598E0F0
:103B30000E94F5188F71982F92959F70E82E919F93
:103B4000E00C11248BE598E00E94F5189C013327C6
:103B500094E0359527959A95E1F7129F800D1124F1
:103B60008883E982FA82DB82CC820D83CE01DF91E9
:103B7000CF911F910F91FF90EF90DF90CF9008951C
:103B8000FC01908190539A3008F090E0818180533D
:103B90002AE0929F800D112408958F929F92AF92F8
:103BA000BF92CF92DF92EF92FF92CF93DF93EC011F
:103BB0006A017B0180E8C81A83E4D80A8DE6E80A26
:103BC00088E3F80A8CE3882E912CA12CB12CC70134
:103BD000B601A50194010E94D3256D83CA01B901E4
:103BE000A50194010E94D3256C83C701B60120E191
:103BF0003EE040E050E00E94D325CA01B90128E12F
:103C000030E040E050E00E94D3256B83C701B6014D
:103C100020E831E541E050E00E94D3251882488138
:103C2000542F537081E009F080E090E0BC016359AB
:103C30007E4F2617370738F0281B390B2D56314099
:103C40004F5F4883ECCF81E089838981E82FF0E0E2
:103C5000EC57FE4FE491511103C0823009F4EF5F3D
:103C6000F0E02E173F0720F02E1B3F0B8F5FECCFAD
:103C70002F5F2A83DF91CF91FF90EF90DF90CF905D
:103C8000BF90AF909F908F900895DC01FC0131961A
:103C90002C91253219F02B3549F024C011962C9126
:103CA000211102C08DEF15C00296089511962C9136
:103CB0002E3559F4FC01329608C0DF0111962532E9
:103CC00051F02C912D3559F0FD0120812111F5CFB6
:103CD0008CEF0E941C032181211106C0F2CFCD017F
:103CE00001960895CF010895DF011296EACFCF9291
:103CF000DF92EF92FF920F931F93CF93DF938C018C
:103D0000FB017A0181818E3521F43196C0E0D0E04B
:103D100012C0C1E0D0E00FC081816281853291F490
:103D20006F0122E0C20ED11C70E0C8010E94C302E4
:103D3000892B21F5F6019F012F5F3F4F2E153F057F
:103D400058F318C090E06D3281F46F0143E0C40E67
:103D5000D11CCE14DF0448F4081719075CF38381E3
:103D600090E08017910734F309C00817190731F064
:103D70006901E0CFCE0121E0822701C0CE01DF91B1
:103D8000CF911F910F91FF90EF90DF90CF9008950A
:103D9000FB0120812E32A9F02B3531F0253241F480
:103DA000618170E00C94C302415051090C94771E5C
:103DB00030E041E050E02817390709F040E0CA013F
:103DC000089581E090E00895FC01538D448D252FE6
:103DD00030E0842F90E0821B930B541710F0CF96A5
:103DE000089501970895FC01918D828D981761F0D7
:103DF000828DDF01A80FB11D5D968C91928D9F5F22
:103E00009F73928F90E008958FEF9FEF0895FC01CC
:103E1000918D828D981731F0828DE80FF11D858D7F
:103E200090E008958FEF9FEF0895FC01918D228D12
:103E3000892F90E0805C9F4F821B91098F73992797
:103E4000089589ED96E00E94151F21E0892B09F461
:103E500020E0822F089586E797E00E94151F21E059
:103E6000892B09F420E0822F0895EF92FF920F939F
:103E70001F93CF93DF93EC0181E0888F9B8D8C8D16
:103E8000981305C0E889F989808185FD26C0F62E42
:103E90000B8D10E00F5F1F4F0F731127E02E8C8DDD
:103EA000E8120CC00FB607FCFACFE889F9898081C7
:103EB00085FFF5CFCE010E947219F1CF8B8DFE01E7
:103EC000E80FF11DE35AFF4FF0829FB7F8940B8F74
:103ED000EA89FB89808180620AC09FB7F894EE89E5
:103EE000FF896083E889F989808183708064808399
:103EF0009FBF81E090E0DF91CF911F910F91FF90E4
:103F0000EF900895CF93DF93EC01888D8823C9F05B
:103F1000EA89FB89808185FD05C0A889B9898C91D2
:103F200086FD0FC00FB607FCF5CF808185FFF2CF6D
:103F3000A889B9898C9185FFEDCFCE010E947219B5
:103F4000E7CFDF91CF9108956115710579F0FB01FD
:103F500001900020E9F73197AF01461B570BDC01B8
:103F6000ED91FC910280F381E02D099480E090E0D6
:103F700008951F920F920FB60F9211240BB60F9255
:103F80002F933F934F935F936F937F938F939F9361
:103F9000AF93BF93EF93FF9389ED96E00E94721960
:103FA000FF91EF91BF91AF919F918F917F916F9111
:103FB0005F914F913F912F910F900BBE0F900FBECD
:103FC0000F901F9018951F920F920FB60F92112409
:103FD0000BB60F922F938F939F93EF93FF93E091E4
:103FE000E906F091EA068081E091EF06F091F00693
:103FF00082FD12C090818091F2068F5F8F732091B5
:10400000F306821751F0E091F206F0E0E752F94F23
:10401000958F8093F20601C08081FF91EF919F916F
:104020008F912F910F900BBE0F900FBE0F901F908E
:1040300018951F920F920FB60F9211240BB60F9284
:104040002F933F934F935F936F937F938F939F93A0
:10405000AF93BF93EF93FF9386E797E00E947219A7
:10406000FF91EF91BF91AF919F918F917F916F9150
:104070005F914F913F912F910F900BBE0F900FBE0C
:104080000F901F9018951F920F920FB60F92112448
:104090000BB60F922F938F939F93EF93FF93E09123
:1040A0008607F09187078081E0918C07F0918D075A
:1040B00082FD12C0908180918F078F5F8F73209156
:1040C0009007821751F0E0918F07F0E0EA58F84F1F
:1040D000958F80938F0701C08081FF91EF919F9111
:1040E0008F912F910F900BBE0F900FBE0F901F90CE
:1040F000189587E698E00E94050F8AEF98E00C94E7
:10410000050FE9EDF6E01382128288EE93E0A0E05D
:10411000B0E084839583A683B78321E131E03183C6
:1041200020834DEC50E0558744874CEC50E0578796
:10413000468748EC50E0518B408B49EC50E0538B64
:10414000428B4AEC50E0558B448B4EEC50E0578B41
:10415000468B118E128E138E148EE6E7F7E01382D3
:10416000128284839583A683B7833183208325ECD1
:1041700030E03587248724EC30E03787268720EC31
:1041800030E0318B208B21EC30E0338B228B22EC22
:1041900030E0358B248B26EC30E0378B268B118E6C
:1041A000128E138E148EE3E1F8E0168217821086C9
:1041B0001186128613861486158616861786108A2F
:1041C000118A128A138A148A158AEBE5F8E01382A1
:1041D000128284839583A683B78383E291E09183DF
:1041E000808361EB71E08AEF98E00E94130FEDE6A7
:1041F000F8E010821282118261EB71E087E698E0AC
:104200000E94130F40E050E0BA0181E099E00C9465
:10421000CD1DCF93DF93CDB7DEB760970FB6F8947F
:10422000DEBF0FBECDBF789484B5826084BD84B5F7
:10423000816084BD85B5826085BD85B5816085BDA1
:1042400080916E00816080936E0010928100809159
:1042500081008260809381008091810081608093E1
:104260008100809180008160809380008091B10006
:1042700084608093B1008091B00081608093B00031
:104280008091910082608093910080919100816083
:104290008093910080919000816080939000809144
:1042A0007A00846080937A0080917A0082608093A3
:1042B0007A0080917A00816080937A0080917A0000
:1042C000806880937A001092C1000E949D0491EB57
:1042D000292E92E0392E25E0822E912CA12CB12C92
:1042E0000E947F1A672B682B692B41F40E947F1A6A
:1042F000623071058105910508F409C10E947F1A99
:1043000000915A0910915B0920915C0930915D0977
:10431000601771078207930740F460935A097093FE
:104320005B0980935C0990935D0900915A09109193
:104330005B0920915C0930915D096B017C01C01A19
:10434000D10AE20AF30A970186010A3F1105210505
:10435000310508F4DCC060935A0970935B098093BF
:104360005C0990935D0984EF91E0A0E0B0E0809358
:10437000210890932208A0932308B0932408109258
:10438000250810922608109227081092280880917C
:10439000190890911A08A0911B08B0911C088093ED
:1043A0001D0890931E08A0931F08B09320080E9438
:1043B0007F1A6093190870931A0880931B089093D2
:1043C0001C080E947F1A609315087093160880934A
:1043D0001708909318080E947F1A6B017C0164EC07
:1043E00073E080915508909156080E94831261E015
:1043F00080915508909156080E945E156BEC73E011
:1044000080915508909156080E9483122AE0B701C6
:10441000A60180915508909156080E94E8106DE918
:1044200073E080915508909156080E948312809104
:10443000190890911A08A0911B08B0911C08B701A7
:10444000A601481B590B6A0B7B0B2AE0809155088B
:10445000909156080E94E8106DE973E0809155082C
:10446000909156080E9483124091190850911A08A1
:1044700060911B0870911C0880911D0890911E0886
:10448000A0911F08B0912008481B590B6A0B7B0BA9
:104490002AE080915508909156080E94E8106FEC30
:1044A00073E080915508909156080E9483120E94F3
:1044B0007F1AAB01BC012AE0809155089091560803
:1044C0000E94E81061ED73E08091550890915608C4
:1044D0000E946F120E947F1A6B017C012B013C012C
:1044E00095E0490E511C611C711C0E947F1A6C15CD
:1044F0007D058E059F0508F0ABC10E947F1A609371
:10450000190870931A0880931B0890931C08E09177
:104510005809F0915909E930F10508F063C0E358F2
:10452000FF4F0C94EB27A6E0B0E0B0935909A0939D
:1045300058095CC085E0C82ED12CD0925909C09290
:10454000580954C00E94600E892B91F18AE090E0D6
:10455000A0E0B0E08D879E87AF87B88BCE01019633
:104560000E94461DAE01435F5F4FBE016F5F7F4FEC
:10457000CE0107960E948512CE0107960E94E61C86
:1045800068ED73E086E797E00E9483128F8189834C
:1045900088858A8389858B838A858C838B858D83A7
:1045A0008C858E83CE0101960E946D030E943F0E82
:1045B00086E797E00E94821F309205012092040155
:1045C000809169008F7C806280936900EA9A20E084
:1045D00030E040E050E06AE070E087E599E00E945A
:1045E0006D1B04C010925909109258098091550909
:1045F00090915609892B09F428C189E10E942E1A4D
:10460000BC01990F880B990B0E94B6249B01AC0149
:1046100060E070EC8FE794E40E949B2620E030E09D
:1046200040E85FE30E942E2620E030E543EC57E4AB
:104630000E94152520E030E543EC57E40E949B26BC
:104640000E9449272B013C0188E10E942E1A7C011F
:104650008AE10E942E1A8C016CEE73E086E797E0E7
:104660000E94831220E038E945E855E4C301B20115
:104670000E949B262FE03FEC4BE55BE30E942F2638
:104680009B01AC0160E070E080E89FE30E949B2604
:1046900023E333E948E853E40E942E2642E00E94D7
:1046A00099116BEF73E086E797E00E946F1262E06A
:1046B00074E086E797E00E94831224E630E0D70199
:1046C0000E94F42720E233E040E050E00E94F5250C
:1046D000C9010E94671161E174E086E797E00E94DA
:1046E0006F1263E174E086E797E00E948312C801CD
:1046F000110FAA0BBB0B9C01AD01345041095109AC
:10470000A4E6B0E00E94142620E034E040E050E04F
:104710000E94F52550954095309521953F4F4F4F7C
:104720005F4FC9010E94671161E174E086E797E07D
:104730000E946F1264E274E086E797E00E948312A1
:1047400080915309909154090E94671164E374E0C9
:1047500086E797E00E946F1264E474E086E797E0D2
:104760000E9483126091530970915409072E000C26
:10477000880B990B0E94B62420E030E040EC51E415
:104780000E949B2642E00E9499116FEA71E086E741
:1047900097E00E94A41F10925409109253090E949E
:1047A000600E892B71F18D869E86AF86B88ACE0108
:1047B00001960E94461DAE01435F5F4FBE016F5FD1
:1047C0007F4FCE0107960E948512CE0107960E9468
:1047D000E61C68ED73E086E797E00E9483128F8104
:1047E000898388858A8389858B838A858C838B8559
:1047F0008D838C858E83CE0101960E946D030E946D
:104800003F0E109256091092550986E797E00E94D4
:10481000821F3092050120920401809169008F7CF3
:10482000806280936900EA9A20E030E040E050E046
:104830006AE070E087E599E00E946D1BEA98A0EBC2
:10484000B8E1B0930501A09304010E94741848CD0B
:10485000461657066806790608F047CE4ECEDC01AC
:104860002D923D924D925D926D927D928D929D9290
:10487000AD92BD92CD92DD92ED92FD920D931D937E
:10488000CD93DD93FF91EF918DB78D938EB78D937F
:104890008FB78D93ED93FD93882799270994DC01B9
:1048A000CB0181309105811D2D903D904D905D9003
:1048B0006D907D908D909D90AD90BD90CD90DD9050
:1048C000ED90FD900D911D91CD91DD91ED91FD91BA
:1048D0000D90F894FEBF0FBEEDBFED91FD910994D0
:1048E00091110C949C24803219F089508550C8F79E
:1048F0000895FB01DC0102C005900D92415050402B
:10490000D8F70895BB27FB015527AA27880F991FC1
:10491000AA1FA41710F0A41B83955051B9F7A05DEE
:10492000AA3308F0A95DA193009779F7B111B1936B
:104930001192CB010C949F24992788270895DC01BC
:10494000FC01672F71917723E1F7329704C07C91C6
:104950006D9370836291AE17BF07C8F308950E94EC
:10496000F12408F481E00895E89409C097FB3EF42F
:1049700090958095709561957F4F8F4F9F4F9923AC
:10498000A9F0F92F96E9BB279395F695879577952A
:104990006795B795F111F8CFFAF4BB0F11F460FFEA
:1049A0001BC06F5F7F4F8F4F9F4F16C0882311F042
:1049B00096E911C0772321F09EE8872F762F05C056
:1049C000662371F096E8862F70E060E02AF09A95F1
:1049D000660F771F881FDAF7880F9695879597F9E6
:1049E0000895990F0008550FAA0BE0E8FEEF161680
:1049F0001706E807F907C0F012161306E407F507D3
:104A000098F0621B730B840B950B39F40A2661F046
:104A1000232B242B252B21F408950A2609F4A140E9
:104A2000A6958FEF811D811D08950E9428250C9465
:104A300099250E948B2538F00E94922520F095231D
:104A400011F00C9482250C94882511240C94CD250A
:104A50000E94AA2570F3959FC1F3950F50E0551F52
:104A6000629FF001729FBB27F00DB11D639FAA27C3
:104A7000F00DB11DAA1F649F6627B00DA11D661F12
:104A8000829F2227B00DA11D621F739FB00DA11D33
:104A9000621F839FA00D611D221F749F3327A00DED
:104AA000611D231F849F600D211D822F762F6A2F89
:104AB00011249F5750409AF0F1F088234AF0EE0FEE
:104AC000FF1FBB1F661F771F881F91505040A9F71B
:104AD0009E3F510580F00C9482250C94CD255F3FBC
:104AE000E4F3983ED4F3869577956795B795F79557
:104AF000E7959F5FC1F7FE2B880F911D96958795CF
:104B000097F9089597F99F6780E870E060E008954D
:104B10009FEF80EC089500240A94161617061806D5
:104B20000906089500240A941216130614060506B1
:104B30000895092E0394000C11F4882352F0BB0F42
:104B400040F4BF2B11F460FF04C06F5F7F4F8F4FA5
:104B50009F4F089557FD9058440F551F59F05F3FE0
:104B600071F04795880F97FB991F61F09F3F79F08F
:104B700087950895121613061406551FF2CF469511
:104B8000F1DF08C0161617061806991FF1CF869593
:104B90007105610508940895E894BB276627772777
:104BA000CB0197F90895A1E21A2EAA1BBB1BFD01A8
:104BB0000DC0AA1FBB1FEE1FFF1FA217B307E407FC
:104BC000F50720F0A21BB30BE40BF50B661F771F54
:104BD000881F991F1A9469F7609570958095909534
:104BE0009B01AC01BD01CF010895052E97FB1EF47A
:104BF00000940E940C2657FD07D00E94D32507FC85
:104C000003D04EF40C940C26509540953095219588
:104C10003F4F4F4F5F4F08959095809570956195E8
:104C20007F4F8F4F9F4F08950E941F26A59F900D85
:104C3000B49F900DA49F800D911D11240895A29FF3
:104C4000B001B39FC001A39F700D811D1124911D60
:104C5000B29F700D811D1124911D08955058BB27DE
:104C6000AA270E9446260C9499250E948B2538F08D
:104C70000E94922520F039F49F3F19F426F40C94F9
:104C800088250EF4E095E7FB0C948225E92F0E941D
:104C9000AA2558F3BA17620773078407950720F00F
:104CA00079F4A6F50C94CC250EF4E0950B2EBA2FD2
:104CB000A02D0B01B90190010C01CA01A001112422
:104CC000FF27591B99F0593F50F4503E68F11A16CE
:104CD000F040A22F232F342F4427585FF3CF46955F
:104CE00037952795A795F0405395C9F77EF41F1681
:104CF000BA0B620B730B840BBAF09150A1F0FF0F4B
:104D0000BB1F661F771F881FC2F70EC0BA0F621F36
:104D1000731F841F48F4879577956795B795F79526
:104D20009E3F08F0B0CF9395880F08F09927EE0FBB
:104D30009795879508950E94AF260C9499250E9417
:104D4000922558F00E948B2540F029F45F3F29F00E
:104D50000C94822551110C94CD250C9488250E9429
:104D6000AA2568F39923B1F3552391F3951B550BAD
:104D7000BB27AA2762177307840738F09F5F5F4F2E
:104D8000220F331F441FAA1FA9F335D00E2E3AF06D
:104D9000E0E832D091505040E695001CCAF72BD085
:104DA000FE2F29D0660F771F881FBB1F26173707D6
:104DB0004807AB07B0E809F0BB0B802DBF01FF2708
:104DC00093585F4F3AF09E3F510578F00C9482253E
:104DD0000C94CD255F3FE4F3983ED4F38695779508
:104DE0006795B795F7959F5FC9F7880F911D9695C1
:104DF000879597F90895E1E0660F771F881FBB1F1D
:104E0000621773078407BA0720F0621B730B840BC9
:104E1000BA0BEE1F88F7E09508950E94B22588F03E
:104E20009F5798F0B92F9927B751B0F0E1F0660F6E
:104E3000771F881F991F1AF0BA95C9F714C0B130AF
:104E400091F00E94CC25B1E008950C94CC25672FF9
:104E5000782F8827B85F39F0B93FCCF386957795DE
:104E60006795B395D9F73EF49095809570956195C7
:104E70007F4F8F4F9F4F08950E94F12408F48FEFCA
:104E8000089516F00C9496270C94882568940C9439
:104E900082250E94B225A8F39923C1F3AEF3DF93D4
:104EA000CF931F930F93FF92C92FDD2788232AF0FA
:104EB0002197660F771F881FDAF720E030E040E87F
:104EC0005FEB9FE3883920F0803E38F021968F77A2
:104ED0000E942F26ECE0F1E004C00E942F26E9E3B7
:104EE000F1E00E94A4278B01BE01EC01FB2E6F575D
:104EF00071097595771F880B990B0E94B62428E1DC
:104F000032E741E35FE30E942825AF2D9801AE010F
:104F1000FF900F911F91CF91DF910E9446260C9434
:104F200099250E94F124880B990B08959F3F31F039
:104F3000915020F4879577956795B795880F911DC7
:104F40009695879597F90895DF93CF931F930F93C5
:104F5000FF92EF92DF927B018C01689406C0DA2EFB
:104F6000EF010E942825FE01E894A5912591359135
:104F700045915591A6F3EF010E944626FE01970147
:104F8000A801DA9469F7DF90EF90FF900F911F91DD
:104F9000CF91DF910895991B79E004C0991F96176E
:104FA00008F0961B881F7A95C9F78095089597FB9E
:104FB000072E16F4009407D077FD09D00E94FB2736
:104FC00007FC05D03EF4909581959F4F089570950C
:104FD00061957F4F0895EE0FFF1F0024001C0BBE4C
:104FE0000790F691E02D09940E941F26B7FF0895BF
:104FF000821B930B0895AA1BBB1B51E107C0AA1F7C
:10500000BB1FA617B70710F0A61BB70B881F991F69
:105010005A95A9F780959095BC01CD0108950F93FD
:105020001F93CF93DF938230910510F482E090E0DC
:10503000E0916009F091610920E030E0A0E0B0E08B
:10504000309719F140815181028113814817590726
:10505000C8F08417950769F4109731F012960C93F5
:10506000129713961C9327C000936009109361094F
:1050700022C02115310519F04217530718F49A017F
:10508000BD01EF01DF01F801DBCF21153105F9F09A
:10509000281B390B2430310580F48A819B816115EE
:1050A000710521F0FB019383828304C09093610911
:1050B00080936009FE01329644C0FE01E20FF31FA7
:1050C0008193919322503109398328833AC02091EA
:1050D0005E0930915F09232B41F420910801309142
:1050E000090130935F0920935E09209106013091F8
:1050F00007012115310541F42DB73EB740910A0152
:1051000050910B01241B350BE0915E09F0915F0972
:10511000E217F307A0F42E1B3F0B2817390778F08E
:10512000AC014E5F5F4F2417350748F04E0F5F1FED
:1051300050935F0940935E098193919302C0E0E030
:10514000F0E0CF01DF91CF911F910F910895CF93A0
:10515000DF93009709F481C0FC0132971382128219
:10516000A0916009B0916109109781F4208131818B
:10517000820F931F20915E0930915F09281739072C
:1051800051F5F0935F09E0935E0967C0ED0120E0FF
:1051900030E0CE17DF0740F44A815B819E01411564
:1051A0005105F1F0EA01F5CFD383C28340815181EB
:1051B000840F951FC817D90759F488819981840FE6
:1051C000951F0296918380838A819B81938382833A
:1051D0002115310529F4F0936109E09360093DC080
:1051E000E901FB83EA8349915991C40FD51FEC175C
:1051F000FD0761F480819181840F951F0296E9017A
:1052000099838883828193819B838A83E0E0F0E0A5
:1052100012968D919C911397009719F0FD01DC0176
:10522000F7CF8D919C9111979D012E5F3F4F820F7B
:10523000931F20915E0930915F092817390769F49F
:10524000309729F4109261091092600902C013820C
:105250001282B0935F09A0935E09DF91CF91089508
:105260006F927F928F929F92AF92BF92CF92DF9276
:10527000EF92FF920F931F93CF93DF93009789F4E0
:10528000CB01DF91CF911F910F91FF90EF90DF90B5
:10529000CF90BF90AF909F908F907F906F900C9425
:1052A0000F28FC01E60FF71F9C0122503109E2177D
:1052B000F30708F4A9C0EC01D9010D911C911197D5
:1052C00006171707B0F00530110508F49BC0C80198
:1052D00004978617970708F495C002501109061B1A
:1052E000170B019311936D937C93CF010E94A72814
:1052F00089C05B01A01AB10A4C01800E911EA091D9
:105300006009B0916109612C712CE12CF12C10978E
:1053100009F446C08D919C911197A815B905B1F576
:105320006C0142E0C40ED11CCA14DB0478F14C01BC
:105330008A189B08640142E0C40ED11C1296BC90EE
:1053400012971396AC91B5E0CB16D10440F0B2821F
:10535000A38391828082D9016D937C9309C00E5FF3
:105360001F4F800F911FF90191838083EB2DFA2F3E
:10537000E114F10431F0D7011396FC93EE931297E8
:1053800041C0F0936109E09360093CC0681679065A
:1053900008F43C017D0112960D90BC91A02DB7CF71
:1053A00080915E0990915F0988169906E1F466166E
:1053B0007706C8F48091060190910701009741F4A7
:1053C0008DB79EB740910A0150910B01841B950B3C
:1053D000E817F907C8F4F0935F09E0935E09F90153
:1053E000718360830FC0CB010E940F287C0100975E
:1053F00059F0A801BE010E94652ACE010E94A7288B
:10540000C70104C0CE0102C080E090E0DF91CF91DF
:105410001F910F91FF90EF90DF90CF90BF90AF90D2
:105420009F908F907F906F90089581E090E0F89426
:105430000C94A22D91110C949C2480538A5018F046
:10544000865C0C94272A089585FD0C949C24806228
:1054500091110C949C2481568A51D8F7089591118A
:105460000C949C2480538A5028F0865C806281567C
:105470008650B0F7089591110C949C248F3711F049
:105480008052D0F7089591110C949C2481528E552E
:10549000D8F781580E941A2A8823B1F781E008952D
:1054A0009111089581548A5108F4805E855A0895B7
:1054B000FB01DC0104C08D910190801921F4415061
:1054C0005040C8F7881B990B0895FB01DC0102C00E
:1054D00001900D9241505040D8F708956817790710
:1054E00068F4FB01DC01E40FF51FA40FB51F02C037
:1054F00002900E9241505040D8F708950C94652ABE
:10550000FB01DC018D91019080190110D9F3990BF9
:105510000895FB01DC0101900D920020E1F7089550
:10552000FB01DC014150504048F001900D920020F9
:10553000C9F701C01D9241505040E0F70895FB01AA
:1055400051915523A9F0BF01DC014D91451741113F
:10555000E1F759F4CD010190002049F04D9140153B
:105560004111C9F3FB014111EFCF81E090E00197B8
:1055700008950F931F93CF93DF93CDB7DEB72E9788
:105580000FB6F894DEBF0FBECDBF0D891E8986E031
:105590008C831A8309838FEF9FE79E838D83AE01EF
:1055A000475E5F4F6F89788DCE0101960E94E82A91
:1055B000EF81F885E00FF11F10822E960FB6F89458
:1055C000DEBF0FBECDBFDF91CF911F910F91089528
:1055D0002F923F924F925F926F927F928F929F9203
:1055E000AF92BF92CF92DF92EF92FF920F931F93F1
:1055F000CF93DF93CDB7DEB72B970FB6F894DEBF0E
:105600000FBECDBF6C017B018A01FC01178216829F
:10561000838181FFCCC1CE0101963C01F6019381CB
:10562000F70193FD859193FF81917F01882309F410
:10563000BAC1853239F493FD859193FF81917F0141
:10564000853229F4B60190E00E94082DE7CF912C15
:10565000212C312CFFE1F315D8F08B3279F038F49E
:10566000803279F08332A1F4232D20611DC08D3268
:1056700061F0803369F4232D216016C0832D826090
:10568000382EE32DE4603E2E2AC0F32DF8601DC0B5
:1056900037FC2DC020ED280F2A3040F08E32B9F4AF
:1056A00036FC81C1232D2064322E19C036FE06C07F
:1056B0008AE0989E200D1124922E11C0EAE02E9EC1
:1056C000200D1124222EF32DF0623F2E08C08C36BF
:1056D00021F4832D8068382E02C0883641F4F7010A
:1056E00093FD859193FF81917F018111B3CF982F15
:1056F0009F7D9554933028F40C5F1F4F9FE399834F
:105700000DC0833631F0833771F0833509F059C00D
:1057100021C0F801808189830E5F1F4F8824839404
:10572000912C530113C02801F2E04F0E511CF801D7
:10573000A080B18036FE03C0692D70E002C06FEF1B
:105740007FEFC5010E94FD2C4C018201F32DFF77F4
:105750003F2E16C0280122E0420E511CF801A08005
:10576000B18036FE03C0692D70E002C06FEF7FEF9D
:10577000C5010E94F22C4C01F32DF0683F2E8201EE
:1057800033FC1BC0822D90E088169906B0F4B60158
:1057900080E290E00E94082D2A94F4CFF50137FCB6
:1057A000859137FE81915F01B60190E00E94082D3E
:1057B00021102A9421E0821A91088114910471F732
:1057C000E8C0843611F0893641F5F80137FE07C08C
:1057D00060817181828193810C5F1F4F08C060815D
:1057E0007181072E000C880B990B0E5F1F4FF32D54
:1057F000FF763F2E97FF09C0909580957095619533
:105800007F4F8F4F9F4FF0683F2E2AE030E0A3017B
:105810000E94442D882E861845C0853731F4232DEB
:105820002F7EB22E2AE030E025C0932D997FB92E2D
:105830008F36C1F018F4883579F0B5C0803719F08B
:10584000883721F0B0C0E92FE061BE2EB4FE0DC054
:10585000FB2DF460BF2E09C034FE0AC0292F26603C
:10586000B22E06C028E030E005C020E130E002C0E2
:1058700020E132E0F801B7FE07C0608171818281CA
:1058800093810C5F1F4F06C06081718180E090E0C2
:105890000E5F1F4FA3010E94442D882E8618FB2DFA
:1058A000FF773F2E36FE0DC0232D2E7FA22E8914AA
:1058B00058F434FE0BC032FC09C0832D8E7EA82E16
:1058C00005C0B82CA32C03C0B82C01C0B92CA4FE71
:1058D0000FC0FE01E80DF11D8081803321F49A2D67
:1058E000997EA92E09C0A2FE06C0B394B39404C049
:1058F0008A2D867809F0B394A3FC11C0A0FE06C0DF
:10590000B21488F4280C922C9B180EC0B21460F4C8
:10591000B60180E290E00E94082DB394F7CFB21454
:1059200018F42B1802C0982C212CA4FE10C0B6012C
:1059300080E390E00E94082DA2FE17C0A1FC03C0E6
:1059400088E790E002C088E590E0B6010CC08A2D9F
:10595000867859F0A1FE02C08BE201C080E2A7FC6C
:105960008DE2B60190E00E94082D891438F4B6014A
:1059700080E390E00E94082D9A94F7CF8A94F30177
:10598000E80DF11D8081B60190E00E94082D811084
:10599000F5CF222009F442CEB60180E290E00E94C9
:1059A000082D2A94F6CFF6018681978102C08FEFE9
:1059B0009FEF2B960FB6F894DEBF0FBECDBFDF91E1
:1059C000CF911F910F91FF90EF90DF90CF90BF90FC
:1059D000AF909F908F907F906F905F904F903F908F
:1059E0002F900895FC010590615070400110D8F788
:1059F000809590958E0F9F1F0895FC016150704017
:105A000001900110D8F7809590958E0F9F1F0895F3
:105A10000F931F93CF93DF93FB01238121FD03C0DD
:105A20008FEF9FEF2CC022FF16C046815781248143
:105A300035814217530744F4A081B1819D012F5F46
:105A40003F4F318320838C93268137812F5F3F4FD7
:105A50003783268314C08B01EC01FB010084F185A0
:105A6000E02D0995892BE1F6D80116968D919C9130
:105A70001797019617969C938E931697CE01DF91F8
:105A8000CF911F910F910895FA01AA27283051F163
:105A9000203181F1E8946F936E7F6E5F7F4F8F4F5F
:105AA0009F4FAF4FB1E03ED0B4E03CD0670F781FBE
:105AB000891F9A1FA11D680F791F8A1F911DA11DA3
:105AC0006A0F711D811D911DA11D20D009F46894DC
:105AD0003F912AE0269F11243019305D3193DEF684
